:020000040800F2
:10000000C0070020010100080B2800080B2400088D
:1000100009280008590900086530000800000000A0
:10002000000000000000000000000000C3280008DD
:10003000110A0008000000000D280008C32D000868
:100040001B0100081B0100081B0100081B01000820
:100050001B0100081B0100081B0100081B01000810
:100060001B0100081B0100081B010008950900087E
:100070001B0100081B0100081B0100081B010008F0
:100080001B0100081B010008910800081B01000863
:100090001B0100081B0100081B0100081B010008D0
:1000A0001B0100081B0100081B0100081B010008C0
:1000B0001B0100081B0100081B0100081B010008B0
:1000C0001B0100081B0100081B0100081B010008A0
:1000D0001B0100081B0100081B0100081B01000890
:1000E0001B0100081B0100081B010008DFF80CD0F1
:1000F00000F03EFB00480047F93A0008C007002026
:100100000648804706480047FEE7FEE7FEE7FEE7B1
:10011000FEE7FEE7FEE7FEE7FEE7FEE7292E000822
:10012000ED000008202A04DB203A21FA02F0002129
:10013000704721FA02F3D040C2F1200291400843F7
:100140001946704740EA01039B0703D009E008C93C
:10015000121F08C0042AFAD203E011F8013B00F88C
:10016000013B521EF9D27047D2B201E000F8012BD8
:10017000491EFBD270470022F6E710B513460A4627
:1001800004461946FFF7F0FF204610BD10B50022C7
:1001900000E0521C835C8C5CA34201D1002BF8D19F
:1001A000D8B2E1B2401A10BDF0B480EA0102D40F17
:1001B0004200B2EB410F02D20246084611464A0005
:1001C00042D0C30DDDB2C1F3C752AD1A202D35DACE
:1001D000C1F3160141F4000204B15242C5F12006F8
:1001E00002FA06F12A411044B3EBD05F23D0C4B128
:1001F000012DA0EBC35009DCF0BC4FF0004202EA35
:10020000C352DBB200F5000000F0CCB8400000F1B2
:10021000807000EBC350A0F1807040EAD1704900BB
:1002200009E0490841EAC071A0EBC35000F50000A5
:10023000400800EBC350F0BC00F0ABB861420122B3
:1002400002EB4101001BF6E7F0BC704781F0004172
:10025000AAE780F00040A7E780EA010210B502F0AB
:100260000043400022D04A001FD0010E01EB126172
:10027000C0F35600C2F3560240F4000042F40002FC
:10028000A0FB022000047F39140400D0401C50EA77
:10029000124001D44000491EC2B20C0604EBD0103B
:1002A000401C4008802A02D003E0002010BD20F04E
:1002B0000100002900DA0020184310BD420005D0DB
:1002C000C0F3C7525242914201DC0020704700EB5C
:1002D000C150704796230022114600F063B800F029
:1002E000004230F000400AD0C10D01F56071C0F34A
:1002F000160042EA0151C20840071143704700202E
:100300000146704730B50B460146002020220124EB
:1003100009E021FA02F59D4205D303FA02F5491BD3
:1003200004FA02F52844151EA2F10102F1DC30BDE9
:100330002DE9F05F0546002092469B46884606461A
:10034000814640241BE02846414647462246FFF7A7
:10035000E9FE53465A46C01A914110D31146184639
:10036000224600F017FA2D1A67EB01084F46224685
:100370000120002100F00EFA17EB00094E41201E6B
:10038000A4F10104DFDC484631462A464346BDE875
:10039000F09F0029A8BF7047401C490008BF20F00B
:1003A0000100704710B4B0FA80FC00FA0CF050EA7B
:1003B000010404BF10BC704749B1CCF1200421FAFC
:1003C00004F411FA0CF118BF012121430843A3EBF7
:1003D0000C01CB1D4FEA00614FEA102042BF002004
:1003E00010BC704700EBC35010440029A4BF10BCE0
:1003F0007047401C490008BF20F0010010BC704746
:100400002DE9FE4F804681EA0300C00F0C460090A4
:1004100021F0004123F00045B8EB0200A94105D2CC
:100420004046214690461C460B46024623F00040BB
:10043000104347D0270DC7F30A00C3F30A510290B7
:10044000401A019040286BDAC3F3130040F4801B7C
:100450000098924620B10023D2EB030A63EB0B0B0A
:1004600001985946C0F14002504600F093F9064603
:100470000D4650465946019A00F09BF910EB0800D2
:100480006141002487EA115284EAE7731A4340D09D
:10049000009A62B3019A012A4FEA075215DC001B49
:1004A00061EB02014FF0004202EA0752CDE900423F
:1004B000001C41F5801132462B4600F09BF903B039
:1004C000BDE8F08F40462146F9E7001B61EB0201D1
:1004D000001C41F5801300185B412018A2F500179D
:1004E00047EB030140EAD570B6196D4111E06D0884
:1004F0004FEA360645EAC0754FEA0752001B61EB2A
:100500000201001C41F5801149084FEA3000001932
:10051000514132462B4603B0BDE8F04F00F05BB9C5
:100520000098012240000023D0EB020263EBE0734D
:10053000009821464FEAE074B8EB000061EB04013B
:10054000E9E783F000435BE781F0004158E72DE9DC
:10055000FE4F81EA030404F0004421F000410094BE
:100560004FF0000B23F0004350EA01045ED052EA42
:1005700003045BD0C3F30A54C1F30A552C44A4F21C
:10058000F3340194A0FB0254C1F3130141F4801130
:10059000C3F3130343F4801301FB024400FB034E37
:1005A000840A970A44EA815447EA8357A4FB076800
:1005B00002958D0A05FB07854FEA932C04FB0C542A
:1005C0002705029D4FEA065847EA1637B5EB08059E
:1005D0006EEB070C870E920E47EA811742EA8312F0
:1005E000A7FB0201B6EB0B0164EB00042B0D43EA01
:1005F0000C335E1844EB1C50DA465146E7FB02010F
:10060000C5F313044FEA0B3343EA14534FEA0432A1
:10061000019C43EA0603A4F10C040294009CCDE97A
:1006200000B400F0E7F803B0BDE8F08F0020014609
:10063000F9E72DE9F04D81EA030404F0004B21F0C5
:10064000004514464FF0000A23F0004150EA05022D
:1006500020D054EA01021DD0C5F30A570246C5F363
:100660001303C1F31300C1F30A5640F4801543F499
:100670008013A7EB0608101BD64608F2FD3873EB73
:10068000050002D308F1010801E092185B41B8F1BE
:10069000000F03DA00200146BDE8F08D00204FF482
:1006A0008011064684460EE0171B73EB050705D341
:1006B000121B63EB050306434CEA010C49084FEAA1
:1006C000300092185B4150EA0107EDD152EA030075
:1006D00012D082EA040083EA0501084305D0101B0A
:1006E000AB4106D20122002306E000224FF0004376
:1006F00002E06FF0010253101AEB06004CEB0851B8
:1007000010EB0A0041EB0B01BDE8F04D00F063B8BF
:10071000C1F30A52C1F3130140F2FF3341F48011D7
:100720009A4202DA00200146704740F233439A426F
:10073000A2F2334202DC5242FFF7F4BC00F02AB8C6
:1007400030B5041E71F1000404DB4FF00044404258
:1007500064EB0101141E73F1000405DB1C464FF02D
:100760000043524263EB0403994208BF904230BDFC
:10077000064C074D06E0E06840F0010394E80700EE
:1007800098471034AC42F6D3FFF7B4FCD0400008D1
:10079000F0400008202A04DB203A00FA02F1002091
:1007A00070479140C2F1200320FA03F319439040AF
:1007B0007047202A06DBCB17203A41FA02F043EAC1
:1007C000E07306E041FA02F3D040C2F1200291400A
:1007D00008431946704710B5141E73F1000408DA77
:1007E000401C41F1000192185B411A4301D120F0F5
:1007F000010010BD2DE9F04D92469B4611B1B1FAB2
:1008000081F202E0B0FA80F220329046FFF7C2FF98
:1008100004460F4640EA0A0041EA0B0153465A4695
:10082000084313D0114653EA010019D0C8F1400221
:100830005046FFF777FC05460E465046594642465D
:10084000FFF7A8FF084305D0012004E02046394601
:10085000BDE8F08D0020054346EAE0762C4337439F
:100860000A986305E40AA0EB08000022FD0A44EAA6
:1008700047540A3002D500200146E9E70105101966
:100880006941DDE9084500196941BDE8F04DA2E77D
:10089000014800F052B900004800002070B504463D
:1008A00000688168C943C9071CD1816821F0010132
:1008B000816000F0DFFC05460FE000BF00F0DAFCCD
:1008C000401B022809D9A06A40F01000A062E06A2B
:1008D00040F00100E062012070BD20688068C043E4
:1008E000C007EBD0002070BDF8B500260446009686
:1008F00000688168C943C90728D0816841F00101B7
:100900008160134813490068B0FBF1F000E0401E1D
:1009100000900028FBD100F0ADFC054611E000BFBF
:1009200000F0A8FC401B02280BD9A06A40F0100080
:10093000A062E06A40F00100E06284F824600120D7
:10094000F8BD20688068C043C007E9D10020F8BD29
:100950004000002040420F00FEE7000010B503F009
:100960008FFB0B4C00220221204600F07EFC4FF44E
:10097000FA7000F037F801220221204600F075FCE1
:100980001E2000F02FF8BDE8104003F069BB000006
:1009900000080140014800F089BA00007C030020F3
:1009A0000E48016821F080710160016841F080719A
:1009B00001600B48016821F001010160016841F00C
:1009C000010101600021416000BF00BF00BF40681D
:1009D00008B100207047012070470000FCED00E0E6
:1009E000001000E031B5084D6C6800F075FF074954
:1009F000B0FBF1F000994843009068680099001B33
:100A00008842FAD338BD0000001000E040420F00D9
:100A10007047704770470000F8B50024009490F8C4
:100A200024202546012A12D0012280F824204A6879
:100A30001F23072A0DD20668776B521E02EB820233
:100A400093409F430B6893401F43776319E0022054
:100A5000F8BD06680D2A0AD2376BD21F02EB82025C
:100A600093409F430B6893401F43376309E0F76A45
:100A70000D3A02EB820293409F430B6893401F4361
:100A8000F7620A68072306680A2A0AD3F7680A3A4F
:100A900002EB420293409F438B6893401F43F760F1
:100AA00008E0376902EB420293409F438B68934012
:100AB0001F4337610A68102A01D0112A20D1124B36
:100AC00002689A4217D193681B0219D4936843F4C1
:100AD000000393600968102912D10C490C4A096877
:100AE000B1FBF2F101EB8101490000E0491E0091E8
:100AF0000029FBD104E0816A41F0200181620124D8
:100B000080F824502046F8BD002401404000002019
:100B100040420F0010B5054A01681268914203D1A6
:100B200000F008F80249C88110BD0000480000200C
:100B3000000000200068C06C704710B504460068D3
:100B40004168890626D50168890723D5A16AC906A7
:100B500003D4A16A41F40071A1628168C1F34241EA
:100B6000072910D1217B71B9416821F02001416032
:100B7000A06A20F48070A062A06AC00403D4A06AB6
:100B800040F00100A0622046FFF7C4FF21686FF02B
:100B9000120008602068416809062ED501684907DF
:100BA0002BD5A16AC90603D4A16A41F40051A16200
:100BB0008168C1F30231072909D04168490515D47C
:100BC0008168C1F34241072910D1217B71B9416885
:100BD00021F080014160A06A20F48050A062A06AE8
:100BE000C00503D4A06A40F00100A0622046FFF7D0
:100BF00011FF21686FF00C00086020684168490609
:100C00000DD50068C0070AD0A06A40F48030A06209
:100C1000204600F093F821686FF00100086010BDD5
:100C20002DE9F0414FF0000704003D467ED0A06A58
:100C3000002628B9E66284F82460204600F080F897
:100C40002046FFF72BFEA16AC90600D420B1A06A96
:100C500040F01000A06269E0A16A21F4885141F0DF
:100C60000201A1626268E169237B0A4347EA43010A
:100C70000A43A1684FF48077B94209D0012907D00F
:100C80005FF0000194F814C0BCF1010F02D00AE03B
:100C90003946F7E7F3B1A36A43F02003A362E36A9E
:100CA00043F00103E3622368D3F804C02CF4694CD9
:100CB0004CEA010CC3F804C021688B68DFF870C0EF
:100CC00003EA0C0313438B60A168B9420BD00129DE
:100CD00009D00CE0DFF85CC0A3690CEB43330B4395
:100CE00043F40061DFE7218A0D05A5F58015216831
:100CF000CB6A23F470032B43CB62216889680E4BC7
:100D00001940914208D1E662A16A21F0020141F046
:100D10000101A162BDE8F081A06A20F0020040F06C
:100D20001000A062E06A40F00100E0620120F1E7FB
:100D3000FDF7E1FF00E0FFFFFE0E1FFF7047000020
:100D400070B586B00025064600950195029503957D
:100D500000681E49884236D11D49886940F40070F8
:100D60008861886900F400700490886940F004008C
:100D700088618869694600F00400049001200090B1
:100D800003200190134800F07BF9144C1248C4E989
:100D900000058020C4E902504000206180006061AD
:100DA0002020C4E90605204600F02AF908B1FFF723
:100DB00030FE3462002211461220666200F04EFCC2
:100DC000122000F03DFC06B070BD00000024014080
:100DD0000010024000080140080002407C0300208F
:100DE00070B5044690F8240001280DD0012084F845
:100DF00024002046FFF778FD02004FF0000005D0E8
:100E000084F82400104670BD022070BDA16A40F62F
:100E10000163994341F48071A162224D2368224904
:100E2000AB4218D10E6816F4702F14D0A66A46F49F
:100E30008016A6620E68760505D5A66A26F40056C9
:100E400046F48056A662A66AF6040AD5E66A26F03B
:100E50000606E66206E0A66A26F48016A6625E68CA
:100E6000E9E7E06284F824006FF00200186020686F
:100E7000436843F02003436020688368C3F3424320
:100E8000072B05D1A84208D1096811F4702F04D0AE
:100E9000816841F480118160B4E7816841F4A00168
:100EA000F9E7000000280140042401402DE9F05F2B
:100EB000C16B0C6801680B68D0F840C0042202FACC
:100EC0000CF2494DDFF824A1494E4A4FDFF828B112
:100ED000DFF828E122422CD05A072AD50A68920668
:100EE00003D40A6822F004020A600168A94201D111
:100EF000042219E0514501D1402215E0B14202D14E
:100F00004FF4806210E0B94202D14FF480420BE00E
:100F1000594502D14FF4802206E0714502D14FF4C9
:100F2000800201E04FF080622F4908394A60C16AAF
:100F30003BE04FF0020808FA0CF818EA040F4FF0F3
:100F400000094FF0010235D05FEA837832D50B6893
:100F50009B0605D40B6823F00A030B6080F8212060
:100F60000168A94201D1022219E0514501D1202294
:100F700015E0B14202D14FF4007210E0B94202D143
:100F80004FF400520BE0594502D14FF4003206E015
:100F9000714502D14FF4001201E04FF00072124986
:100FA00008394A6080F82090816A00291AD0BDE88B
:100FB000F05F0847082505FA0CF5254212D01B07FB
:100FC00010D50B6823F00E030B6090F84010C36B34
:100FD00002FA01F15960826380F8212080F82090A4
:100FE000016BE2E7BDE8F09F080002401C000240F0
:100FF0003000024044000240580002406C000240B1
:1010000030B528B308C8134914221944B1FBF2F1D2
:101010008900C16310498163022141771A6843F650
:10102000F0718A43D0E900142143D0E902452C43F2
:1010300021430469214344692143846921431143C5
:10104000196000214163012242770177084630BDD3
:10105000012030BDF8FFFDBF0000024070B504461E
:1010600000F008F90546601C02D0044800780444EA
:1010700000F000F9401BA042FAD370BD34000020FC
:101080002DE9F84FDFF8B891002409F1040A0AF1BC
:10109000040B23460F270BF1040EC9E00125A540E0
:1010A0002A40AA427DD1674ED1F804C0ACEB0608B5
:1010B000B44532D014DCBCF1030F3AD009DCBCF1EA
:1010C000000F2AD0BCF1010F1CD0BCF1020F31D1AE
:1010D0001DE0BCF1110F17D0BCF1120F2AD119E09D
:1010E000B8F5881F19D006DCB8F5803F15D0B8F5E3
:1010F000801F1FD111E0B8F5001F0ED0B8F5041FF6
:1011000018D10AE0CB6815E0CB681B1D12E0CB6854
:1011100008330FE0CB680C330CE08B682BB1012B4C
:101120004FF0080303D0456104E0042302E00561A9
:1011300000E00023FF2A01D8064601E000F1040682
:101140004FEA840501D9A5F12005D6F8008007FAF9
:1011500005FC28EA0C0803FA05F548EA0508C6F874
:1011600000804D68ED0062D5374DAE6946F001064E
:10117000AE61AD6924F0030605F001050095334D1D
:1011800006EB050CDCF80850A607360F07FA06F840
:1011900025EA0805DFF8B880404503D14FF0000884
:1011A00017E044E0DFF8AC80404502D14FF0010881
:1011B0000FE0DFF8A480404502D14FF0020808E0BC
:1011C000DFF89880404502D14FF0030801E04FF06E
:1011D000040808FA06F848EA0508CCF808804D68C3
:1011E000D9F80060ED034D4601D5164300E0964363
:1011F0002E604D68DAF80060AD03554601D5164300
:1012000000E096432E604D68DBF80060ED025D461D
:1012100001D5164300E096432E604D68DEF800606D
:10122000AD02754601D5164300E096432E60641C5E
:101230000D682A46E5407FF431AFBDE8F88F000025
:1012400000040140000011100010024000000140A5
:1012500000080140000C0140001001400014014052
:101260008068084000D0012070470AB101617047D2
:101270000904FBE701488068704700003400002043
:1012800070B504001BD094F83D00002520B984F807
:101290003C50204600F044F9242084F83D002068AA
:1012A000016821F00101016000F01CFB4D4A6168FA
:1012B000914201D84C4900E04C49884201D20120BA
:1012C00070BD4B492368B0FBF1F15E6826F03F0624
:1012D0000E435E606368934206D94FF49673594398
:1012E0004FF47A73B1FBF3F12368491C1E6A26F0B0
:1012F0003F06314319626168914210D84900401E8F
:10130000B0FBF1F2521CC2F30B02042A01D20420FA
:1013100022E0B0FBF1F0401CC0F30B001CE0A3681E
:10132000F3B301EBC10202EB0116421EB2FBF6F26F
:10133000521C42F48042120549D093B301EBC10222
:1013400002EB0111401EB0FBF1F0401CC0F30B009A
:1013500040F4804040F400402168CA694CF6FF73B5
:101360009A431043C861D4E90701084321680A6819
:1013700022F0C00210430860D4E903010143206851
:10138000826848F2FF339A4311438160D4E9050132
:1013900008432168CA6822F0FF021043C86001E0D8
:1013A0000EE016E02068016841F00101016025644B
:1013B000202084F83D00256384F83E50002070BD55
:1013C00001EB4106421EB2FBF6F2521CB3E70120CC
:1013D000C2E701EB4101401EB0FBF1F0401CC0F33D
:1013E0000B00B7E7A086010080841E0000093D00C5
:1013F00040420F002DE9F84F1F4690468A460446AA
:10140000DDF82890FFF736FF054694F83D002028C8
:101410007FD11923012240492046009501F078F838
:10142000002876D194F83C00012872D0012084F87D
:101430003C0020680168C90703D1016841F001013F
:1014400001602068016821F400610160212084F8B6
:101450003D00102084F83E0000262664C4F8248055
:101460006785608D20852D48E0622B464A465146AF
:10147000204600F0E3FF90B9206841698069009040
:1014800036E02A464946204601F0C1F850B1206CAA
:10149000042804D12068016841F400710160012032
:1014A000BDE8F88F606A216800780861606A401CB6
:1014B0006062618D491E6185218D491E89B2218539
:1014C00022685369DB435B070BD451B1007810618C
:1014D000606A401C6062608D401E6085208D401EE9
:1014E00020852A464946204600F0ECFF0028CED150
:1014F000208D0028C5D154F83D0B016841F40071DE
:101500000160202004F81E09E67766770020C7E70F
:10151000FFE70220C4E70000020010000000FFFF08
:1015200010B586B0002100910191029103910068ED
:101530001349884222D1134CA06940F00800A061F1
:10154000A069694600F0080004904FF440700090D4
:1015500012200190032003900B48FFF791FD0B48E8
:10156000416841F0E06141F002014160E06940F40E
:101570000010E061E06900F40010049006B010BDB6
:101580000054004000100240000C014000000140E7
:10159000024881680278114481607047340000205D
:1015A000074810B5016841F010010160032000F008
:1015B00075F8002000F006F800F024F8002010BDB7
:1015C0000020024070B50D4D04464FF47A71287822
:1015D000B1FBF0F00A490968B1FBF0F000F081FDC1
:1015E00048B9102C07D200222146501E00F036F8D0
:1015F00000206C6070BD012070BD00003400002030
:10160000400000200C4808B5816941F0010181616A
:10161000816901F001010091C16941F08051C1610E
:10162000C06900F0805000900448416821F0E061FA
:1016300041F00071416008BD00100240000001400F
:10164000002809DB00F01F020121914040098000C1
:1016500000F1E020C0F8001170470000F0B40E4B1C
:101660001B680C46C3F30223C3F10705042D00D900
:101670000425191D072901D2002300E0DB1E0126E5
:1016800006FA05F1491E214099409E40761E1640FB
:101690003143F0BC01F00CBD0CED00E0064900F058
:1016A000070208684FF6FF03184040EA0220034A89
:1016B00010430860704700000CED00E00000FA05E0
:1016C0002DE9F84305460078354CC00754D0E06951
:1016D0000026C00008D4E06940F08050E061E06975
:1016E000012600F0805000902E480168C90512D4F0
:1016F0000168804641F480710160FFF7BBFD074639
:1017000005E000BFFFF7B6FDC01B642823D8D8F85A
:101710000000C005F6D5206A10F4407021D0A988D9
:1017200001F4407181421CD0206A1F49012220F43B
:1017300040700A6000220A602062C00711D0FFF7E3
:1017400099FD074641F2883808E000BFFFF792FD97
:10175000C11B414502D90320BDE8F883206A8007F8
:10176000F4D5206A696820F44070084320621EB1F5
:10177000E06920F08050E0612878800705D5606836
:10178000A96820F44040084360602878C00605D569
:101790006068E96820F48000084360600020DBE7AF
:1017A0000010024000700040400442422DE9F04722
:1017B0000F46050061D0434E306800F00700B84284
:1017C00009D2306820F0070038433060306800F0FC
:1017D0000700B84251D128683B4C810712D5400719
:1017E00003D5606840F4E06060602878000703D5A6
:1017F000606840F4605060606068A96820F0F000A4
:10180000084360602878C00728D06868012810D095
:101810002168022810D0890700292EDA616821F09A
:10182000030101436160FFF725FD804641F28839DD
:101830000DE021688903EFE78901EDE7FFF71AFD65
:10184000A0EB0801494502D90320BDE8F087606894
:10185000696800F00C00B0EB810FEFD1306800F048
:101860000700B8420BD9306820F0070038433060D9
:10187000306800F00700B84201D00120E5E7287881
:10188000400705D56068E96820F4E06008436060BF
:101890002878000706D56068296920F4605040EA7E
:1018A000C100606000F03EF86168084AC1F30311AE
:1018B000515CC8400649086006480068FFF782FE90
:1018C0000020C2E70020024000100240B84000089B
:1018D00040000020380000200148006870470000E8
:1018E000400000200448054900684968044AC1F3E3
:1018F0000221515CC84070474000002000100240A7
:10190000C84000080448054900684968044AC1F312
:10191000C221515CC84070474000002000100240C6
:10192000C840000812A185B00FC98DE80F0014A0AF
:10193000144A006804905168134801F00C03042B0A
:1019400010D0082B0ED1C1F38343C9031DF8030047
:101950000AD5516804AAC1F34041515C0A4A504378
:10196000B0FBF1F005B0704708494843FAE70000C2
:1019700002030405060708090A0B0C0D0E0F1010D0
:10198000010200000010024000127A0000093D0030
:101990002DE9F84F040070D02078C04DC00749D021
:1019A0006868C0F38100012807D06868C0F381002F
:1019B000022809D16868C00306D52868800339D594
:1019C00060680028E7D035E06068B0F5803F0BD054
:1019D00010B1B0F5A02F11D0286820F48030286015
:1019E000286820F4802002E0286840F480302860D5
:1019F000606890B1FFF73EFC06460AE0286840F4B4
:101A000080202860F0E700BFFFF734FC801B6428CB
:101A100073D828688003F7D50CE0FFF72BFC064647
:101A200005E000BFFFF726FC801B6428F0D828687B
:101A30008003F7D420789A4E80074FF001094FF0C9
:101A4000000839D5686810F00C0F07D06868C0F33B
:101A50008100022809D16868C00306D4286880077D
:101A600014D52069012808D110E02069B0B1C6F86A
:101A70000090FFF7FFFB074605E00AE1FFF7FAFBDE
:101A8000C01B0228C4D828688007F7D52868616978
:101A900020F0F80040EAC10028600DE0C6F80080A0
:101AA000FFF7E8FB074604E0FFF7E4FBC01B022852
:101AB00023D828688007F7D4207800072CD57948E8
:101AC000A169D9B1C0F80090FFF7D4FB074604E044
:101AD000FFF7D0FBC01B02280FD8686A8007F7D534
:101AE00071484FF4FA510068B0FBF1F0009000BF6C
:101AF0000098411E0091FAD20EE080E0C0F800800C
:101B0000FFF7B8FB074604E0FFF7B4FBC01B022851
:101B100075D8686A8007F7D42078400760D5E869EF
:101B20000027C00008D4E86940F08050E861E86907
:101B3000012700F0805000905C480168C90513D46B
:101B40000168834641F480710160FFF793FB824690
:101B500006E000BFFFF78EFBA0EB0A0064284ED81A
:101B6000DBF80000C005F5D5E06801280AD008B10F
:101B7000052813D0286A20F001002862286A20F086
:101B8000040002E0286A40F001002862E06841F2A7
:101B9000883B98B1FFF76EFB82460BE0286A40F065
:101BA00004002862EEE700BFFFF764FBA0EB0A0128
:101BB00059455AD8286A8007F6D50CE0FFF75AFB3A
:101BC000824605E0FFF756FBA0EB0A0159454CD8C9
:101BD000286A8007F6D41FB1E86920F08050E861D8
:101BE000E06988B36968C1F38101022944D0022801
:101BF000C6F8608004D0FFF73DFB044638E034E0CF
:101C0000FFF738FB074604E0FFF734FBC01B022850
:101C10002BD828688001F7D4206AB0F5803F05D121
:101C20006868A16820F4003008436860D4E90801BE
:101C30000843696821F4741108436860C6F860902D
:101C4000FFF718FB044606E025E000BFFFF712FB94
:101C5000001B022809D828688001F7D51BE000BFC7
:101C6000FFF708FB001B022802D90320BDE8F88F0C
:101C700028688001F4D40EE00128F7D06868226A51
:101C800000F48031914204D1616A00F470108842FE
:101C900001D00120EAE70020E8E700000010024040
:101CA0000000424280044242400000200070004098
:101CB00090F85100704770B5040005D00025A5626A
:101CC00094F8510010B106E0012070BD84F8505026
:101CD000204600F02FF8022084F8510020680168A7
:101CE00021F040010160D4E901010843D4E9031265
:101CF0001143084361690843218B01F400710843D3
:101D0000E1690843216A0843A16A08432168086021
:101D1000A069042101EA1040216848602068C16977
:101D200021F40061C1616565012084F85100002043
:101D300070BD000030B585B0002400940194029479
:101D4000039400681449884223D11448816941F4FE
:101D500080518161816901F480510491816941F070
:101D60000401816180690E4D00F004000490A02000
:101D70000090022001900320039069462846FFF757
:101D80007FF94020CDE90004694628460294FFF718
:101D900077F905B030BD000000300140001002406E
:101DA000000801402DE9F84F044690F85000002744
:101DB0001D461646894601280DD04FF0010B84F8C8
:101DC00050B0FFF757FA804694F85100BA46012800
:101DD00004D002278EE00220BDE8F88FB9F1000F91
:101DE0007DD0002E7BD0032084F85100C4F854A08D
:101DF000C4F83090A686E686C4F838A0A4F83CA0C3
:101E0000A4F83EA0C4F844A0C4F840A0A068B0F56F
:101E1000004F04D12068016841F4804101602068CE
:101E20000168490603D4016841F040010160E0689F
:101E3000B0F5006F606803D030B3012E24D040E0CD
:101E400008B1012E1CD1206B21680088C86006E013
:101E500020688168890709D5216B0988C160206BDA
:101E6000801C2063E08E401EE08609E0FFF702FA46
:101E7000A0EB0800A84202D3681C01D031E07DB37A
:101E8000E08E0028E4D11FE0206B21680078087301
:101E900006E020688168890709D5216B09780173FC
:101EA000206B401C2063E08E401EE08609E0FFF7B7
:101EB000E1F9A0EB0800A84202D3681C01D010E0B1
:101EC00075B1E08E0028E4D142462946204600F054
:101ED0009EFC08B120206065A06820B107E008E002
:101EE000FFE7032706E02068C16880680090606D06
:101EF00000B1012784F851B084F850A038466BE750
:101F00002DE9F84F044690F8500000270A9E1D4620
:101F100092468B464FF0010901280ED0012084F82B
:101F20005000FFF7A7F9804694F851006168012836
:101F30000CD0B1F5827F07D102E00220BDE8F88F16
:101F4000A16809B9042801D00227C2E0BBF1000F43
:101F500027D0BAF1000F24D01DB394F85100042803
:101F600002D0052084F8510000206065C4F838A034
:101F7000E587A587C4F830B0E586A586206460644F
:101F800020680168490603D4016841F040010160FE
:101F9000E068B0F5006F606805D0E8B3012D46D069
:101FA0007FE0012795E008B1012D39D1206B216830
:101FB0000088C860206B801C2063E08E401EE08695
:101FC0002EE02068816889070FD5E18E69B1B9F1EB
:101FD000010F0AD1216B0988C160206B801C20632E
:101FE000E08E401EE0864FF0000920688168C90736
:101FF0000CD0E18F51B1C068A16B0880A06B801C30
:10200000A063E08F401EE0874FF00109FFF732F92F
:10201000A0EB0800B04200E009E001D3701C50D1F1
:10202000E08E0028CDD1E08F0028CAD13FE0206BA0
:10203000216800780873206B401C2063E08E401EEE
:10204000E0862EE02068816889070FD5E18E69B1AE
:10205000B9F1010F0AD1216B09780173206B401C83
:102060002063E08E401EE0864FF000092068816802
:10207000C9070CD0E18F51B1C068A16B0870A06B8B
:10208000401CA063E08F401EE0874FF00109FFF77E
:10209000F1F8A0EB0800B04202D3701C01D010E0B0
:1020A0007EB1E08E0028CDD1E08F0028CAD1424613
:1020B0003146204600F0ABFB28B1012720206065A7
:1020C00007E0032705E0A06818B92068C1688068A8
:1020D0000090012084F85100002084F85000384618
:1020E0002CE710B5401EB0F1807F01D3012010BD58
:1020F0004FF0E02460610F21601700F0D9FF00204D
:10210000A06107202061002010BD70B590F83C2030
:10211000012A19D0012400F83C4F0222427050F8E5
:102120003C3C5A689D6822F070060A684968324350
:1021300025F0800529435A6050F83C2C916044708A
:1021400000210170084670BD022070BD10B504006A
:1021500003D094F83D0010B107E0012010BD00202D
:1021600084F83C00204600F00DF8022084F83D0081
:10217000211D206800F07CFE012084F83D00002035
:1021800010BD000008B50068B0F1804F08D10548C7
:10219000C16941F00101C161C06900F00100009016
:1021A00008BD00000010024070B5044690F83C00E5
:1021B000012817D0012584F83C50022084F83D0006
:1021C0002068826822F0770222F47F4282600868E9
:1021D000502830D00DDC20284DD005DC98B31028D5
:1021E0003BD148E0022070BD302844D0402834D193
:1021F00039E0602828D0702806D0B0F5805F2CD058
:10220000B0F5005F29D10AE0CB68D1E9012120684F
:1022100000F064FE2068816841F0770109E0CB6836
:10222000D1E90121206800F059FE2068816841F45D
:102230008041816011E0CA684968206800F060FE52
:102240005021206807E016E0CA684968206800F05D
:1022500068FE6021206800F04BFE84F83D500020AD
:1022600084F83C0070BDCA684968206800F048FEE8
:1022700040212068EFE7226801461046EBE770B581
:10228000040004D094F83900002510B106E00120C4
:1022900070BD84F83850204600F022F8242084F8DD
:1022A00039002068C16821F40051C160204600F067
:1022B0004BFE2068016921F4904101612068416969
:1022C00021F02A0141612068C16841F40051C160D8
:1022D000E563202084F8390084F83A00002070BDBE
:1022E00030B585B0002400940194029403940068F2
:1022F0001449884224D11448816941F480418161A4
:10230000816901F480410491816941F00401816196
:1023100080690E4D00F0040004904FF400700090AE
:10232000022001900320039069462846FEF7A8FE8C
:102330002815CDE90004694628460294FEF7A0FE60
:1023400005B030BD003801400010024000080140D7
:102350002DE9F843044690F839001F4616460D460D
:10236000202850D1A5B19EB194F8380001284AD058
:10237000012084F838004FF00008C4F83C80212088
:1023800084F83900FEF776FFA6848146E68426E0CD
:102390000120BDE8F883E08C401EE084A0684B4635
:1023A000B0F5805F4FF000024FF0800120460097AB
:1023B00003D000F025FEE8B90DE000F021FEC8B919
:1023C00028882168C0F308004860206908B16D1CA6
:1023D00005E0AD1C03E0216815F8010B4860E08CB6
:1023E0000028D8D14B46002240212046009700F01B
:1023F00007FE08B10320CCE7202084F8390084F8D8
:1024000038800020C5E70220C3E7FEE701684A697B
:10241000D24352050FD46FF480624A61002140F824
:10242000301F202242738173026942F0040202616C
:10243000017301207047002070470000F8B5044682
:10244000C06A1E460D461746082807D0012805D049
:1024500010F5803F02D0206B122804D1206801685B
:1024600041F480710160134600224FF001112046B3
:10247000009600F04DF808BB2069B0F5804F0ED0F3
:102480000620216800EAD51040F0F00008613346CC
:102490003A460B49204600F06FF878B902E005F0A3
:1024A000FE0000E0E8B221680861054933463A467B
:1024B000891F204600F060F8002800D00120F8BDF8
:1024C0000800010070B516460D4604460DE0204692
:1024D000FFF79CFF08B1012070BD681C05D0FEF716
:1024E000C9FE801BA84207D835B120684069C043A7
:1024F0004007ECD4002070BD002044F8300F2021AC
:102500006173A073216941F0200121612073E2E72A
:102510002DE9F0471E4690460D460446C1F3074795
:10252000DDF8209008E0701C06D0FEF7A3FEA0EBBB
:102530000900B0420FD876B12068012F18D0806909
:1025400025EA00000004000C14D000214145EAD027
:102550000020BDE8F087002044F8300F202161738F
:10256000A073216941F02001216120730120F0E76F
:102570004069E5E70121E9E72DE9F0479A469146F0
:102580000E46044600254FF02008C1F3074725E01A
:1025900020684069C043400514D42068016841F4B4
:1025A0000071016021686FF480604861256384F8E0
:1025B0003D8084F83E50206C40F00400206484F894
:1025C0003C501FE0B9F1FF3F08D0FEF753FEA0EBEF
:1025D0000A0149450CD8B9F1000F09D02068012F34
:1025E00013D0806926EA00000004000C0BD0CFE76E
:1025F00044F8305F84F80D80A573206940F0200016
:10260000206125730120BDE8F0874069EAE770B5D5
:1026100016460D4604460DE02046FFF7F7FE08B1CA
:10262000012070BD681C05D0FEF724FE801BA84267
:1026300007D835B120684069C0430006ECD40020BB
:1026400070BD002044F8300F20216173A073216910
:1026500041F0200121612073E2E700003EB5002433
:102660000D480094019402940A4984600160047347
:102670000475012505614FF460214460C161FEF7D6
:10268000CFFACDE90045694603480294FEF7C4F944
:102690003EBD000000240140480000202DE9F04329
:1026A000324885B0816941F010018161816901F092
:1026B00010010491816941F020018161816901F07B
:1026C00020010491816941F004018161816901F077
:1026D00004010491816941F008018161806901224E
:1026E00000F00800224F5403049021463846FEF7BC
:1026F000BCFDDFF88080012210214046FEF7B5FDC9
:10270000DFF87490012211464846FEF7AEFD012520
:10271000CDE9004500240226CDE902466946384647
:10272000FEF7AEFC1020CDE90005CDE90246694672
:102730004046FEF7A5FC03960095CDE90154694695
:102740004846FEF79DFCCDE9006469464846029480
:10275000FEF796FC0420CDE9000469464846029441
:10276000FEF78EFC05B0BDE8F083000000100240CB
:102770000010014000080140000C01400C480B49CA
:102780004FF4007201604FF482714160002181605A
:10279000C1600161C0E905120822C0E90721416258
:1027A00081620A21C162FFF786BA00000030014051
:1027B000CC00002010B586B000241248009401948B
:1027C0000294039404944FF080410594016048F60C
:1027D000A041C0E9011441F28731C0E903148461CA
:1027E000FFF7B4FC4FF48050009069460548FFF7AE
:1027F000DBFC049404A903480594FFF786FC06B0AB
:1028000010BD000024010020FEE77047704738B576
:102810000B46009204460022802100F008F80028B0
:1028200004D0606D40F020006065032038BD2DE9C4
:10283000F0411D4617460E460446DDF8188008E0B4
:10284000681C06D0FEF716FDA0EB0800A8420BD2CC
:1028500055B12068806836EA000030D00020B842C8
:10286000EED10020BDE8F0812068416821F0E00150
:1028700041606068B0F5827F0BD1A068B0F5004F71
:1028800002D0B0F5806F04D12068016821F04001CA
:102890000160A06AB0F5005F09D12068016821F4E9
:1028A000005101602068016841F40051016001207D
:1028B00084F85100002084F850000320D2E7012062
:1028C000CDE7704770B515460E460446017200F01C
:1028D000DBF984224D21204600F027F9FF22242134
:1028E000204600F022F901224021204600F01DF987
:1028F0003F221121204600F018F9204600F042F94D
:1029000032462221204600F010F90F21204600F027
:10291000FDF802460D21204600F007F98D22012125
:10292000204600F002F9002084F80A011821204610
:1029300000F0ECF8400703D503206072012070BD61
:102940006D1E03D0012000F0ACF9EFE7206800F025
:10295000B4F9204600F098F9002070BD70B5164615
:102960000C460546017200F08FF987224D2128465A
:1029700000F0DBF800222421284600F0D6F841229E
:102980004021284600F0D1F8284600F0FBF8F72255
:102990001121284600F0C9F822462221284600F0DD
:1029A000C4F80E21284600F0B1F802460D21284651
:1029B00000F0BBF82221284600F0A8F8A04203D17D
:1029C00002206872012070BD761EF3D1286800F0E5
:1029D00074F9284600F058F9002070BD70B504461F
:1029E000006800F060F908B304F10A004FF4807148
:1029F0000646FDF7C0FB1021204600F087F802468E
:102A00000D21204600F091F8A07990B113212046C5
:102A100000F07CF805462B4632460021204600F0A7
:102A200035F884F80A51204600F0ACF894F80A0111
:102A300070BD257AEFE770B51D4613460A46044679
:102A4000002100F042F88B220121204600F06DF8B1
:102A5000206800F028F958B11221204600F056F8FD
:102A6000204600F08FF8204600F0A2F9012070BD4A
:102A70006D1E03D0012000F014F9E9E7206800F092
:102A80001CF9204600F000F9002070BD2DE9F0414E
:102A90001E4617460C460546012B14D9002128680E
:102AA00000F051F92146286800F01FF9002404E0E5
:102AB00000F02DF93855641CE4B22868B442F7D30D
:102AC000012100F040F9BDE8F0812DE9F0411E46FA
:102AD00017460C460546012B16D90021286800F040
:102AE00032F944F08001286800F0FFF8002405E086
:102AF000395D286800F0F9F8641CE4B2B442F7D3F9
:102B00000121286800F01FF9BDE8F08170B5044686
:102B1000006800F0EAF8206800F0F9F805460121A5
:102B2000206800F010F9284670BD70B50D460446C7
:102B300016460068002100F006F945F08001206883
:102B400000F0D3F83146206800F0CFF8012120686A
:102B500000F0F9F870BD2DE9F0470446DDE9088979
:102B60001D4616460F46006800F0F7F8277166719B
:102B7000A57184F8078084F808902046BDE8F047E6
:102B800000F082B8FF221221FFF7CFBF2DE9F041FC
:102B90001C4615460F468046069E00F000F90F20A1
:102BA00000F07FF8404600F078F8364907EB470020
:102BB0004218032306214046FFF787FF31480921C9
:102BC000C01C425D4046FFF7B0FF0B221146404655
:102BD000FFF7ABFF23220C214046FFF7A6FF294D4C
:102BE0000727ED1DE81D295D805D06292BD00221F8
:102BF00001EB0010C2B21D214046FFF796FF285D91
:102C00001E2107EB0010C2B24046FFF78EFFFF22E5
:102C10001F214046FFF789FF002220214046FFF791
:102C200084FF0C2221214046FFF77FFF0122412132
:102C30004046FFF77AFF0021404688F80A11BDE8B8
:102C4000F04100F0B5B8032101EB0010C2B21D2124
:102C50004046FFF76AFF285D1E2107EB0010C2B255
:102C60004046FFF762FF31214046FFF74FFF00F07B
:102C7000F80040F0050231214046FFF756FF0C22D4
:102C80003721C1E7A040000808B5C17900918379D8
:102C900042790179FFF77AFF08BD88220121FFF709
:102CA00044BFFEF7DBB910B50189C06889B2FEF7F1
:102CB000D7FA012800D0002010BD10B5044601212C
:102CC00000F041F82088002281B26068FEF7CDFA5A
:102CD0000120FFF7E6FF2088012281B26068FEF73D
:102CE000C4FA6420FFF7DDFF10BD13B504460021D0
:102CF00000F029F84FF47A73012201A9A069FFF7C7
:102D000051F8A069FEF7D4FF0128FAD11CBD3EB5E9
:102D1000044600208DF808008DF804000146204686
:102D200000F011F84FF47A700090012301AA02A973
:102D3000A069FFF7E5F8A069FEF7BAFF0128FAD10C
:102D40009DF804003EBD012905D00022018A40699A
:102D500089B2FEF78ABA0122F8E710B504460121CC
:102D6000FFF7F1FF2088012281B26068BDE81040C2
:102D7000FEF77BBA70B5054690F80A0114460E4678
:102D8000A04200D00446224605F10A013046FDF774
:102D9000D9F90020305585F80A01204670BD10B5DC
:102DA000044608220121FFF7C0FE0020607210BD1A
:102DB00010B5044609220121FFF7B7FE0120607219
:102DC00010BDFEF7E5BB30B593B028216846FDF78E
:102DD000D2F914210AA8FDF7CEF9002401200F949E
:102DE00010941194010412948DE8130004904FF490
:102DF000E010CDE90810022507956846FEF7C8FDEA
:102E00000F20CDE90A056802CDE90C4002210AA88D
:102E10000E94FEF7CBFCA80311900F950FA8FEF7B8
:102E20004FFC13B030BD00000D48016841F00101B6
:102E3000016041680B4A1140416001680A4A114033
:102E40000160016821F480210160416821F4FE01E4
:102E500041604FF41F0181600449C003086070475E
:102E6000001002400000FFF8FFFFF6FE08ED00E052
:102E7000F0B50268164B174C174D4FF0804798423B
:102E800005D0B84203D0A04201D0A84203D122F01D
:102E900070064A683243984205D0B84203D0A04237
:102EA00001D0A84203D122F44074CA6822434C697D
:102EB00022F08002224302608A68C2620A6882624B
:102EC000984201D10969016301214161F0BD00000F
:102ED000002C0140000400400008004010B5846848
:102EE00042EA032224F47F440A432243826010BD55
:102EF000826822F070020A4342F007018160704745
:102F000010B5036A046A24F001040462846924F0A1
:102F1000F00444EA021423F00A020A4384610262C4
:102F200010BD10B5036A23F0100303628369046ABD
:102F300023F4704343EA023224F0A00343EA011170
:102F40008261016210BD00002DE9F0410446006875
:102F50000169E26821F44051114301612169A068CF
:102F60000843616908432168CA6841F20C639A43C7
:102F70000243CA6020684169A26921F4407111438B
:102F800041611E49206864253226884202D1FEF73D
:102F9000B9FC01E0FEF7A6FC00EBC00101EB00115B
:102FA00060686FF018078000B1FBF0F2B2FBF5F239
:102FB000B1FBF0F37A4303EB8202B1FBF0F306EBD3
:102FC0000212B2FBF5F2B3FBF5F302F0F00202EBF2
:102FD0000312B1FBF0F3B1FBF0F0B0FBF5F0784376
:102FE00003EB800006EB0010B0FBF5F0216800F069
:102FF0000F0010448860BDE8F081000000380140F7
:103000002DE9F041984617460E460446069D1DE000
:10301000681C1BD02DB1FEF72DF9A0EB0800A842CB
:1030200014D92068C16821F4D071C1602068416959
:1030300021F001014161202084F8390084F83A0030
:10304000002084F838000320BDE8F0812068006883
:1030500036EA000004D00020B842D9D00020F3E7BF
:103060000120F9E7FEE700000FB4054B10B503A9F6
:10307000044A029800F0FEF810BC5DF814FB000052
:10308000F1390008440000200FB4084B10B504A922
:1030900002AA039800F0EEF8044602A9002000F00E
:1030A00080FC204610BC5DF814FB0000A33900082A
:1030B0000907090E002804DB00F1E02080F8001465
:1030C000704700F00F0000F1E02080F8141D7047F9
:1030D00002E008C8121F08C1002AFAD170477047E1
:1030E000002001E001C1121F002AFBD1704700003F
:1030F0002DE9FF5F82B00021DDE90430020DDDF82B
:1031000040B0034318D044F61050A2F2FF324243BD
:103110001514119801281FD0A5EB0B00401C5FEA85
:10312000000A4FF000064E4FDFF83891B046504687
:1031300015D5CAF1000413E0119801244AA301280F
:1031400001D16FEA0B010298119AC0E90031C0E980
:10315000024206B0BDE8F09FCBF10000DFE7044675
:103160000021404A491842EB0450CDE9001012E01A
:10317000E00707D032463B4640464946FDF7E7F9AF
:103180008046894632463B4610461946FDF7DFF930
:1031900006460F466410002CEAD1DDE90401DDE9A2
:1031A0000023BAF1000F06DAFDF7D1F942464B468B
:1031B000FDF7CDF905E0FDF73CFA42464B46FDF739
:1031C00038FA04460E460022284BFDF7B9FA03D818
:1031D0004FF0FF30014607E00022254B20463146E4
:1031E000FDF70EF9FDF794FA102409E0002C0ADB34
:1031F0000A220023FDF79CF8039B30321A55641E07
:1032000050EA0102F2D1641C039AC4F11103144480
:10321000119A012A03D0012208430DD10AE0084384
:1032200004D000204FF0110B119072E7A3EB0B05B7
:103230006D1E0DE05B4504DD4FF0000205F1010558
:1032400004E003DA4FF00002A5F10105002AECD0FA
:1032500002981199C0E90231C0E9004579E7000000
:10326000000014400000F03F300000000000F04378
:103270000000E03F2DE9FF4F95B09B46894606468A
:1032800000250FE2252877D100242746F84A01219E
:10329000059400E0044316F8013F203B01FA03F0D7
:1032A0001042F7D130782A2811D06FF02F033078F0
:1032B000A0F13002092A16D8059A44F0020402EB64
:1032C000820203EB42021044761C0590EFE759F8A6
:1032D000042B0592002A03DA504244F4005405906E
:1032E00044F00204761C30782E2816D116F8010F0F
:1032F00044F004042A280DD06FF02F023078A0F19A
:103300003003092B09D807EB870302EB4303C718E7
:10331000761CF3E759F8047B761C30786C280FD0C4
:1033200006DC4C2817D068280DD06A2814D104E098
:10333000742810D07A280FD10DE044F400140AE06C
:1033400044F4801401E044F440147278824202D1C3
:1033500004F58014761C761C307866280BD013DCBC
:10336000582877D009DC002875D04528F6D04628A3
:10337000F4D047281AD19DE118E0632835D064289D
:1033800079D0652812D195E1702873D008DC6728C0
:10339000F1D069286FD06E280DD06F2806D1B5E026
:1033A00073282CD0752875D0782874D05A46179970
:1033B00090476D1C75E1C4F30250022809D0032820
:1033C0000DD0D9F8001004280DD00D6009F10409C2
:1033D00067E1D9F80010EA17C1E90052F6E7D9F819
:1033E00000100D80F2E70D70F0E719F8041B8DF85E
:1033F000001000208DF80100EA46012003E059F892
:1034000004AB4FF0FF3061074FF0000102D40DE034
:1034100008F101018846B9420FDA8045F8DB1AF855
:1034200008100029F4D108E008F101018846814222
:10343000FADB1AF808100029F6D105985B46A0EBD4
:10344000080721463846179A00F094FA284400EB02
:10345000080507E04DE029E10DE01AF8010B5A4696
:1034600017999047B8F10108F7D25B4621463846D4
:10347000179A13E142E00A220092C4F302524FF07D
:10348000000A022A08D059F804CB032A4FEAEC714B
:103490000AD00DE029E02AE009F1070121F0070236
:1034A000F2E802C1914609E00FFA8CFC4FEAEC7198
:1034B000042A03D14FFA8CFC4FEAEC71002907DA99
:1034C0000A460021DCF1000C61EB02012D2202E032
:1034D000220504D52B228DF80420012203E0E20707
:1034E00001D02022F7E7904659E00A2102E010229D
:1034F0000DE010214FF0000A00910BE010224FF078
:10350000000A44F004040827009203E008224FF068
:10351000000A0092C4F30252022A05D059F804CBE3
:103520000021032A08D009E009F1070121F0070270
:10353000F2E802C1914605E01FFA8CFC042A01D191
:103540000CF0FF0C4FF00008220728D5702806D099
:10355000009B83F0100353EA0A0305D00EE04022DB
:103560008DF80420012208E05CEA010206D0302236
:103570008DF804208DF8050002229046009B83F010
:10358000080353EA0A030AD15CEA010201D1620787
:1035900005D530228DF804204FF001087F1E5828F1
:1035A00004D034A003900EA802900DE036A0F9E7F5
:1035B00053466046009AFCF7BBFE84460398825C43
:1035C0000298401E029002705CEA0100F0D102985D
:1035D00006A9081A00F1200A600702D524F48034F5
:1035E00000E00127574502DDA7EB0A0000E00020BC
:1035F00000EB0A01009005984144401A0590E00351
:1036000006D45B462146179A059800F0B3F90544A5
:10361000002706E001A85A46C05D179990476D1C27
:103620007F1C4745F6DBE0030CD55B462146179A25
:10363000059800F09FF9054404E030205A46179998
:1036400090476D1C0099481E00900029F5DC08E0A9
:10365000029802995A460078491C0291179990479E
:103660006D1CBAF10001AAF1010AF1DC65E100006C
:103670000928010030313233343536373839616248
:10368000636465660000000030313233343536370C
:1036900038394142434445460000000000F058F9E3
:1036A0000544761C307800287FF4ECAD19B028462C
:1036B000BDE8F08F620700D4062709F1070222F067
:1036C000070CFCE80223E14603F000485FEA080C1F
:1036D00002D00FF2702C0DE05FEA045C02D50FF20D
:1036E000682C07E05FEAC47C02D00FF2602C01E096
:1036F000AFF2700C4FF0FF3823F00043CDF850C00C
:1037000065280CD006DC452809D046281DD047285E
:103710003DD13DE0662818D067287ED138E00021F1
:10372000112F01DB112000E0781CCDE9000106A972
:103730000EA8FFF7DDFCDDE90F010E9A03910021D1
:10374000009207F1010A04914DE04FF0004000970C
:10375000CDE9011006A90EA8FFF7CAFCDDE90F02AA
:1037600003920E9B11990022DDF80CA000930492A5
:1037700011B9791C00EB010AB7EB0A0004D4C0F1BF
:10378000FF3007F1010A0490AAEB0700019044E022
:10379000012F00DA01270021112F01DD112000E0A7
:1037A0003846CDE9000106A90EA8FFF7A1FCDDE926
:1037B0000F010E9A0391002104910092BA4621074D
:1037C0000CD40399514500DA8A46BAF1010F05DDA0
:1037D000009AAAF10101515C302908D0B84202DAFE
:1037E00010F1040F06DA0121CDE9011015E0AAF16C
:1037F0000101E9E7002805DC049901440491AAEBE2
:10380000000102E0411C514500DD8A460499401A3E
:10381000401C01904FF000400290200704D4019812
:10382000504501DBCDF8048000208DF84F00029850
:103830000DF14F07B0F1004F25D02B200E900298CC
:103840004FF0020800280CDA404202902D200E9022
:1038500007E00A210298FCF755FD3031029007F885
:10386000011DB8F10001A8F10108F2DC029800285E
:10387000EFD1791E0E980870307800F0200040F0EB
:10388000450007F8020D12A8C01B00F107081498A4
:10389000007800B1012000EB0A01019801EBE07112
:1038A00005984144401A401E0590E00306D45B464B
:1038B0002146179A059800F05DF8054414980078A1
:1038C00018B15A46179990476D1CE00324D55B4602
:1038D0002146179A059800F04DF805441CE004981D
:1038E000002807DBDDE90301884203DD0098405C26
:1038F000179901E0179930205A469047049805F12E
:103900000105401C04900198401E019004D12E2016
:103910005A46179990476D1CBAF10001AAF1010AA5
:10392000DDDC05E017F8010B5A46179990476D1C2E
:10393000B8F10001A8F10108F4DC5B462146179AB2
:103940000598ABE62D0000002B00000020000000D1
:103950002DE9F041044600251E461746880404D48C
:1039600005E039462020B0476D1C641EF9D5284675
:10397000BDE8F0812DE9F041044600251E46904641
:10398000C80301D5302700E02027880404D505E0CE
:1039900041463846B0476D1C641EF9D52846BDE83F
:1039A000F0810A68531C0B601070704770B52820B6
:1039B000FDF718F80C4D4FF4805421462846FDF7CA
:1039C0004FFC50B95020FDF70DF821462846FDF771
:1039D00047FC10B105490120087021462846FDF733
:1039E0003FFC0028F9D170BD000C01400000002010
:1039F00013B56423012269460248FEF7A9FC00982A
:103A00001CBD00006401002010B5332000F02AF82E
:103A10000A20FDF723FB322000F024F83220FDF7C6
:103A20001DFB282000F01EF83220FDF717FB0120B7
:103A300000F018F83220FDF711FB062000F012F814
:103A40003220FDF70BFB0C2000F00CF83220FDF7C4
:103A500005FB022000F006F8BDE810403220FDF71B
:103A6000FDBA00001CB500F0F00141F00C028DF829
:103A7000042041F0080100018DF8051040F00C0110
:103A80008DF8061040F008008DF8070064200090C3
:103A9000042301AA4E210248FDF7ACFC1CBD000026
:103AA000780000201CB500F0F00141F00D028DF807
:103AB000042041F0090100018DF8051040F00D01CE
:103AC0008DF8061040F009008DF807006420009082
:103AD000042301AA4E210248FDF78CFC1CBD000006
:103AE0007800002010B5044602E0641CFFF7DAFFFE
:103AF00020780028F9D110BD86B0FDF751FDFFF701
:103B000062F9FEF7CBFDEE48EC494FF0000801608A
:103B1000EC49C0E901184FF48041C0E90381C0F8C5
:103B20001480C0F81880C0F81C804446C0F820807B
:103B3000FDF7A6FBFEF792FDFEF720FEFEF73AFE2C
:103B4000DF48E149EC3001604FF4E131C0E9011494
:103B50000C21C460C0E904418461C461FEF78FFB9D
:103B6000FCF71EFFFFF750FF8020FFF77BFFD7A079
:103B7000FFF7B8FF4FF47A70FDF770FA0120FFF7F6
:103B800071FFCF483038FDF72BF9D34D00220421C7
:103B90002846FDF76AFB04212846FDF761FBCF4C60
:103BA0000128A0627ED0CEA0FFF75EFA0122042198
:103BB0002846FDF75AFBCE4802224FF0010AC0E921
:103BC0000225CC4A426110220261C0E900A5A0F59D
:103BD000C471816100F11C01AB460860C6A0FFF70B
:103BE00043FA0A250320CDE90005C148022301223A
:103BF00000211C30FEF7AFFFC7A0FFF735FABC4825
:103C00004FF4FA62A0211C30FEF75CFEDFF81C9333
:103C10006426E06241F28830FDF720FAFCF79EFE50
:103C2000FFF7C4FE00F0EEF9607000F0EBF9A07051
:103C300000F0E8F9E07000F0E5F9207100F0E2F939
:103C400020816378A278E1789F1894F804C00F442B
:103C50006744874205D14CEA0120A08142EA032053
:103C60006081A089B0FBF5F16161B0FBF5F105FB66
:103C70001100A0616089B0FBF5F1E161B0FBF5F1E5
:103C800005FB110020626420FDF7E8F9E089FCF7EC
:103C900021FB6FF00B01FCF711FB4F464946FCF787
:103CA000DBFA00E0ABE03946FCF7D3FA6062822031
:103CB000FFF7D8FE9EA0FFF715FFC020FFF7D2FE4A
:103CC000A0A0FFF70FFFA089B0FBF6F03030C0B224
:103CD000FFF7E8FEA089B0FBF6F106FB1100B0FB90
:103CE000F5F03030FFF7DEFE2E20FFF7DBFEA08977
:103CF000B0FBF5F105FB11003030FFF7D3FE93A0C8
:103D0000FFF7F0FE6420FDF7A9F99420FFF7AAFE63
:103D10008FA0FFF7E7FE6089B0FBF6F03030C0B24D
:103D2000FFF7C0FE6089B0FBF6F106FB1100B0FBA7
:103D3000F5F03030FFF7B6FE2E20FFF7B3FE6089B6
:103D4000B0FBF5F105FB11003030FFF7ABFE25208D
:103D5000FFF7A8FE6420FDF781F9606AFCF7BFFA5F
:103D6000024663480B467CA1A038FFF78DF9D420AA
:103D7000FFF778FE7AA0FFF7B5FE5D48A038FFF7A1
:103D8000B1FE2520FFF78EFE6420FDF767F9A06ADB
:103D9000012839D074A0FFF767F976A0FFF764F91E
:103DA00053481C30FEF71AFE0146E06277A0FFF789
:103DB0005BF9E06A00287FF72DAF4D49C2B2563952
:103DC00001F17200FEF7D6FF494A74A0563AE16A43
:103DD000FFF74AF94FF4FA70FDF740F974A0FFF7C6
:103DE00043F93E494248491D5638FCF7CFF90028AF
:103DF00040D03F4856380178312946D03AE072A089
:103E0000FFF732F90022D2E6394B0DF1080C0C3BDA
:103E1000A3F10A02206AA2F18A018CE80F00D4E91A
:103E20000601CDE90001A2F18000D4E904236AA1D2
:103E3000FFF72AF9C1B220632D484FF4FA673A46DA
:103E40001C30FEF78BFD2A49E062963994F8302049
:103E50003B4601F1B200FEF7EEFDE06265A0FFF720
:103E600003F923483A4610211C30C4F82880FEF795
:103E700029FD08E01E484FF4FA6210211C30C4F8F6
:103E800028A0FEF76BFDE062C4E6417801290AD064
:103E90000229EFD1807801280DD000224021584618
:103EA000FDF7E3F9E6E78078012802D000228021BF
:103EB000F5E70122FBE70122F0E700000054004093
:103EC00078000020A08601000038014058696E206B
:103ED0006368616F2E2E2E00000C01400000002050
:103EE0004D6F64653A20536C6176650D0A000000E1
:103EF0005402002000080140436F6E6669677572C6
:103F0000696E67204C6F5261206D6F64756C652E11
:103F10002E2E0D0A00000000436F6E6669677572F1
:103F20006520446F6E65210D0A0000000000C84244
:103F3000474941205452492043414D204249454E72
:103F40000000000054454D503A200000430000009E
:103F500052483A200000000025302E326600000052
:103F6000536F696C3A200000536C617665202E2EE9
:103F70002E0D0A00526563656976696E672070616F
:103F8000636B6167652E2E2E0D0A00005265636516
:103F9000697665643A2025640D0A0000436F6E74EB
:103FA000656E7420282564293A2025730D0A0000C7
:103FB0005061636B616765207265636569766564EE
:103FC0002E2E2E0D0A0000004D6F64653A204D61C3
:103FD000737465720D0A0000256425322E30642E3C
:103FE000256425322E30642E2564257325732573B0
:103FF000000000005061636B6167652073656E743B
:104000000D0A00002DE9F041144E00244FF0010884
:104010004FF4805739463046FDF722F90028F9D091
:104020002820FCF7DFFC39463046FDF719F9002857
:10403000C4F1070108FA01F00ED02843C5B2394691
:104040003046FDF70DF90028F9D1641CE4B2082CC4
:10405000E0D32846BDE8F0818543F0E7000C01403D
:1040600005484FF4805101600021416081600146A4
:104070000248FDF705B80000A4010020000C014033
:1040800005484FF480510160012141600221C16067
:1040900001460248FCF7F4BFA4010020000C0140D7
:1040A0006C8000FFFCF9F6060708090A0B0C0001FA
:1040B00002030405060708090000000000000000D4
:1040C00001020304060708090000000001020304BE
:1040D000F04000080000002048000000D030000838
:1040E000384100084800002078070000E030000850
:1040F000000000000031300000000000000000005F
:1041000001000000000000000000000000000000AE
:10411000000000000000000000000000000000009F
:10412000000000000100000010000000000000007E
:084130000024F400000000006F
:04000005080000ED02
:00000001FF
